:020000040800F2
:1000000050B90020E10800080106000803060008B6
:10001000070600080B0600080F0600080000000095
:1000200000000000000000000000000013060008AF
:100030001506000800000000170600081906000851
:10004000FB080008FB080008FB080008935900089B
:10005000FB080008FB0800081B060008FB08000856
:10006000FB080008FB080008FB080008FB08000864
:10007000FB080008FB080008FB080008FB08000854
:10008000FB080008FB080008FB080008FB08000844
:10009000FB080008FB080008FB0800083F6900088F
:1000A000FB080008FB080008FB080008FB08000824
:1000B000FB08000823560008FB080008FB0800089E
:1000C000FB080008FB080008FB080008FB08000804
:1000D000FB080008B70A0008FB080008FB08000836
:1000E000FB080008FB080008FB080008FB080008E4
:1000F000FB080008FB080008FB080008FB080008D4
:10010000FB080008FB080008FB080008FB080008C3
:10011000FB080008FB080008FB080008FB080008B3
:10012000FB080008FB080008FB080008FB080008A3
:1001300000F002F800F068F80AA090E8000C824491
:100140008344AAF10107DA4501D100F05DF8AFF26E
:10015000090EBAE80F0013F0010F18BFFB1A43F0A5
:1001600001031847C0F90300E0F903000A444FF007
:10017000000C10F8013B13F0070408BF10F8014B06
:100180001D1108BF10F8015B641E05D010F8016B4B
:10019000641E01F8016BF9D113F0080F1EBF10F8AF
:1001A000014BAD1C0C1B09D16D1E58BF01F801CBD2
:1001B000FAD505E014F8016B01F8016B6D1EF9D555
:1001C0009142D6D37047000000230024002500266A
:1001D000103A28BF78C1FBD8520728BF30C148BFAA
:1001E0000B607047642915F0C983752915F0C68323
:1001F000782915F0FF83732915F067860020704772
:100200001FB51FBD10B510BD15F07AFE1146FFF7E2
:10021000F7FF00F0BDF815F098FE03B4FFF7F2FF0A
:1002200003BC00F0EDFB000010B58AB004464FF4AB
:100230007840A249088004F00100002831D04FF630
:10024000FF7000909E4802886E231E21084604F02D
:10025000EDFE9CA010210B46C822CDE900101E2106
:10026000084605F07DF99CA010210B46C822CDE977
:10027000001032211E2005F073F99CA010210B46BE
:10028000C822CDE9001046211E2005F069F99BA087
:1002900010210B46C822CDE900105A211E2005F07E
:1002A0005FF904F0020000283CD04FF6FF70009088
:1002B0008348438802886E211E2004F0B7FE92A076
:1002C00010210B46C822CDE900106E211E2005F03A
:1002D00047F99248807D02280DD19048407B8F4994
:1002E000097BCDE900108D48C37A827A8CA102A8DF
:1002F00015F0D2FA0CE08948407B8849097BCDE9AA
:1003000000108648C37A827A8AA102A815F0C4FA3E
:1003100002A810210B46D222CDE9001082211E2016
:1003200005F01EF90AB010BD10B500F058FA012111
:1003300044F2FD1007F056FA0121480407F05FFA75
:100340000121080207F041FA10BD08B54FF4E06042
:1003500006F0B8FB00214FF0006006F0EAFB252014
:100360008DF8000000208DF8020001208DF80300B8
:10037000684606F0ACFB26208DF8000000208DF8C2
:10038000020001208DF80300684606F0A0FB08BDBE
:100390001CB5FFF7C9FF00F0C3FA4FF4A06006F0E8
:1003A00091FB05F0E5FE4FF4E13000F038FB05F07D
:1003B0000AF901F08FFA05F084FA40F2CF214FF4E8
:1003C0007A7005F001F94FF478403C4908805FA04D
:1003D00015F056FA0120FFF727FF20E061A0102159
:1003E0001423C822CDE900106E211E2005F0B8F8B4
:1003F0004FF4966000F0D1FA4FF6FF708223E622A8
:100400006E2100901E2004F011FE5BA010210B460F
:10041000C822CDE900106E211E2005F0A1F809F0D8
:100420004FF80028DAD157A010211423C822CDE9B3
:1004300000106E211E2005F093F857A010210B46E6
:10044000C822CDE9001082211E2005F089F801E0C4
:1004500009F040F93148807D022803D02F48807D83
:10046000FF28F5D10220FFF7DFFE4FF4FA7000F00D
:1004700094FA4FF4FA7000F090FA0AF0D2FA33A02E
:1004800015F0FEF90DE04AA015F0FAF94FF4FA70F4
:1004900000F083FA4DA015F0F3F94FF4FA7000F074
:1004A0007CFA05F0E9FB0028EDD14EA015F0E8F943
:1004B00002E009F00FF900BFFBE700005A0000203E
:1004C00044020020574152534849502053544D3361
:1004D00032463130330000004C5749502057656296
:1004E00073657276657220546573740041544F4D84
:1004F00040414C49454E54454B00000032303135A7
:100500002F332F32310000006C77495020496E693B
:100510007420537563636573736564006CAC00206D
:10052000444843502049503A25642E25642E2564C2
:100530002E2564005374617469632049503A256420
:100540002E25642E25642E25640000000A202044F8
:10055000533138423230205445535420202020203B
:100560000A0000004C57495020496E6974204661CA
:100570006C696564210000005265747279696E6768
:100580002E2E2E004C57495020496E697420537509
:100590006363657373210000444843502049502031
:1005A000636F6E666967696E672E2E2E000000000D
:1005B0000A20204453313842323020436865636B4F
:1005C000204661696C65642120200A000A202050C1
:1005D0006C6561736520436865636B212020202072
:1005E000200A00000A20445331384232302052653C
:1005F0006164792120202020202020200A00000092
:10060000704700BFFEE700BFFEE700BFFEE700BF88
:10061000FEE7704770477047704710B53348007861
:10062000401C3249087008460078522833DD0846DD
:10063000007864282FDC2E480078401C2C49087074
:1006400008460078082823DC4FF40071294806F09A
:10065000A0FE68B1284800884FF6FF7101EA40000B
:10066000254908800846008840F00100088012E013
:10067000214800884FF6FF7101EA40001E490880BA
:10068000084600884FF6FE7108401B49088002E0CA
:1006900000201749087015480078642822DD1348A7
:1006A00000786C281EDC4FF40071124806F071FED1
:1006B00058B1124800784006000E104908700846EC
:1006C000007840F0010008700CE00C48007840060B
:1006D000000E0A490870084600784FF6FE7108407F
:1006E00006490870012008F078FA10BD2D0000209E
:1006F0002E000020001001402A0000202C000020C5
:100700000CB50020019000906C48006840F48030E7
:100710006A49086000BF6948006800F40030009032
:100720000198401C0190009818B90198B0F5A06F8D
:10073000F1D16248006800F4003010B1012000904F
:1007400001E0002000900098012843D15C48006837
:1007500040F010005A4908600846006820F0030085
:1007600008600846006840F002000860534840688E
:10077000524948600846406848600846406840F46E
:10078000806048600846406820F47C104860084655
:10079000406840F4E81048600846006840F0807007
:1007A000086000BF4548006800F000700028F9D0DC
:1007B0004248406820F003004049486008464068CD
:1007C00040F00200486000BF3C48406800F00C0068
:1007D0000828F9D10CBD10B5FFF792FF10BD10B578
:1007E0003648006840F00100344908600846406817
:1007F0003449084031494860084600683249084099
:100800002E4908600846006820F4802008600846E9
:10081000406820F4FE0048604FF41F008860FFF736
:10082000DAFF4FF000602949086010BD10B50021C3
:1008300000200022214B5B6803F00C0121B1042948
:1008400006D0082928D107E0214B224C236027E05D
:100850001F4B204C236023E0184B5B6803F470109F
:10086000164B5B6803F48032022303EB904022B9FD
:10087000194B4343174C23600DE0104B5B6803F4A6
:10088000003323B1144B4343124C236003E0104B5D
:100890004343104C236003E00D4B0E4C236000BF1C
:1008A00000BF064B5B68C3F303130C4CE15C094BC0
:1008B0001B68CB40074C236010BD000000100240B5
:1008C000002002400000FFF8FFFFF6FE08ED00E008
:1008D00000127A003C00002000093D00400000208A
:1008E0000948804709480047FEE7FEE7FEE7FEE7C4
:1008F000FEE7FEE7FEE7FEE7FEE7FEE70448054900
:10090000054A064B70470000DF0700083101000868
:1009100050B3002050B9002050B5002050B5002041
:1009200010B56FF0040006F01CF92E4800682E493F
:10093000B0FBF1F02D4908700846007800EB40014B
:10094000C1EBC0104FF6FF7101EAC00028490880D2
:1009500010BD0146254A12784A434FF0E0235A6100
:1009600000229A611A46126942F001021A6100BF20
:100970004FF0E022106900F001021AB100F4803259
:10098000002AF5D04FF0E022126922F001024FF068
:10099000E0231A6100229A6170470146144A1288C6
:1009A0004A434FF0E0235A6100229A611A461269C5
:1009B00042F001021A6100BF4FF0E022106900F01E
:1009C00001021AB100F48032002AF5D04FF0E02283
:1009D000126922F001024FF0E0231A6100229A61AD
:1009E000704700003C00002000127A0050000020F8
:1009F0005200002030BF704772B6704762B6704731
:100A0000014600BF704700BF494A128802F0400209
:100A1000002AF9D0C2B2464B1B1D1A80704710B590
:100A200086B00446012144F2040006F0DBFE4FF4D8
:100A30000070ADF8140003208DF8160018208DF812
:100A4000170005A93B4806F011FC4FF48060ADF893
:100A5000140004208DF8170005A9364806F006FC9E
:100A600025208DF8000003208DF801008DF802008C
:100A700001208DF80300684606F029F80194002053
:100A8000ADF80800ADF80A00ADF80C00ADF81000A4
:100A90000C20ADF80E0001A9254807F058FE0122F0
:100AA00040F22551224807F0EAFE0121204807F0D4
:100AB000DAFE06B010BD10B540F225511C4807F013
:100AC000C3FF10B31A4807F03FFFC4B21A480088AA
:100AD00000F40040C8B91848008800F4804060B1B4
:100AE0000A2C03D000201449088020E01248008816
:100AF00040F400401049088019E00D2C06D10E4842
:100B0000008840F480400C49088010E00A480088C2
:100B1000C0F30D0009490C5407480088401C0649E1
:100B2000088008460088C72801DD0020088010BD25
:100B30000038014000080140580000207C010020DE
:100B400001B5BDF800000090BDF80000FB49088029
:100B500008BD01B5BDF800000090BDF80000F749E0
:100B6000891C088008BD08B5F448801C00880090E6
:100B7000BDF8000008BD03B5BDF80000EF490880CE
:100B8000BDF80400891C08800CBD01B5BDF800004B
:100B9000FFF7D6FF0520FFF7DCFEFFF7E4FF08BDF7
:100BA000E7480089E54908807047E449891C0880C6
:100BB000704730B5014601F01F04C1F34513CA0A5E
:100BC000E50205EB43151544A8B230BD00BF011E78
:100BD000A0F10102D0B2FAD1704730B504460D46FB
:100BE000D748808849F24131884205D0D44880886E
:100BF00045F21031884214D1D1494889FFF7A0FF4E
:100C00002012FFF7A6FFE0B2FFF7A3FFCC498889C7
:100C1000FFF796FF2812FFF79CFFE8B2FFF799FF56
:100C2000ABE0C748808846F6040188421DD1C4481D
:100C30008079012804D1C2480088401E001B84B27C
:100C4000BF494889FFF77CFF2012FFF782FFE0B21F
:100C5000FFF77FFFBA498889FFF772FF2812FFF775
:100C600078FFE8B2FFF775FF87E0B548808841F666
:100C70006311884247D1B2488079A8B9B04800884A
:100C8000401E001B84B2AE494889FFF759FF00207F
:100C9000FFF75FFF0020FFF75CFF2012FFF759FF0F
:100CA000E0B2FFF756FF16E0A5494889FFF748FF75
:100CB0002012FFF74EFFE0B2FFF74BFFA049098873
:100CC000491EC1F30F20FFF744FF9D490978491ED3
:100CD000C8B2FFF73EFF9A498889FFF731FF281213
:100CE000FFF737FFE8B2FFF734FF95494988491EFF
:100CF000C1F30F20FFF72DFF91498978491EC8B233
:100D0000FFF727FF39E08E48808845F2105188426E
:100D100020D18B494889FFF713FF2012FFF719FFF5
:100D200087494989491C88B2FFF70AFFE0B2FFF7FB
:100D300010FF83498889FFF703FF2812FFF709FF97
:100D40007F498989491C88B2FFF7FAFEE8B2FFF7AC
:100D500000FF12E07A488079012804D178480088A1
:100D6000401E001B84B2764948892146FFF703FFE5
:100D7000734988892946FFF7FEFE30BD3EB504461B
:100D80000D4600200290019000906D480088A0421E
:100D900003DD6B484088A84201DC00203EBD2946A7
:100DA0002046FFF71AFF6648808849F241318842A1
:100DB00011D06348808846F6040188420BD0604811
:100DC000808845F21031884205D05D48808841F620
:100DD0006311884203D12E20FFF7B2FE0DE0584880
:100DE000808845F21051884204D14FF43850FFF703
:100DF000A7FE02E02220FFF7A3FE5148808849F2B7
:100E00002031884202D10220FFF7E0FEFFF7ABFE5F
:100E100002904B48808841F66311884202D1BDF8A8
:100E20000800BBE70220FFF7D1FEFFF79CFE02900F
:100E30004348808849F2413188420BD0404880883D
:100E400045F21031884205D03D48808845F2105166
:100E5000884210D10220FFF7B9FEFFF784FE009010
:100E6000BDF80800C0B20190BDF804004FF6FF7154
:100E700001EA002001903248808849F225318842F9
:100E800016D02F48808844F23551884210D02C4823
:100E90008088091F88420BD0294880884BF2055171
:100EA000884205D0264880884CF20551884202D1FC
:100EB000BDF8080072E72248808849F24131884233
:100EC0000BD01F48808845F21031884205D01C485D
:100ED000808845F2105188420DD1BDF80800C0123B
:100EE000C002BDF80410891240EA4110BDF800109C
:100EF00040EAE12052E7BDF80800FFF75AFE4DE74F
:100F000000B50F48808849F24131884211D00C4821
:100F1000808846F6040188420BD00948808845F253
:100F20001031884205D00648808841F66311884216
:100F300008D12920FFF704FE14E00000FE07006C32
:100F400044020020FE48808845F21051884204D1B6
:100F50004FF42450FFF7F4FD04E040F27311072032
:100F6000FFF709FE00BD00B5F548808849F2413120
:100F7000884211D0F248808846F6040188420BD09E
:100F8000EF48808845F21031884205D0EC488088CF
:100F900041F66311884203D12820FFF7D1FD0EE00E
:100FA000E748808845F21051884204D14FF4205020
:100FB000FFF7C6FD03E000210720FFF7DCFD00BDC1
:100FC000F0B5054600240027DD48807901280BD1C3
:100FD000DB48808846F60401884205D0D8488088DE
:100FE00041F66311884208D1D5488079F0B9D448D8
:100FF000808841F66311884218D1082D15D2DFE8A8
:1010000005F00406080A0C0E101206250DE007254F
:101010000BE0042509E0052507E0012505E0002592
:1010200003E0032501E0022500BF00BFC44880881B
:1010300049F24131884217D0C148808846F6040100
:10104000884211D0BE48808845F2103188420BD0CA
:10105000BB48808845F21051884205D0B848808846
:1010600041F6631188427DD1082D1CD2DFE805F0DE
:101070000406090C0F12151800BF14E044F0800498
:1010800011E044F040040EE044F0C0040BE044F0F2
:10109000200408E044F0600405E044F0A00402E00D
:1010A00044F0E00400BF00BFA548808845F210511D
:1010B000884202D14FF4585700E03627A048808874
:1010C00045F2103188420DD09D48808845F210517C
:1010D000884207D09A48808841F66311884201D03F
:1010E00044F008049648808846F60401884201D1FD
:1010F00044F0020421463846FFF73DFD90488088C1
:1011000041F6631188421DD004F0200068B18C487C
:1011100000888B494988884214DA894806884088C3
:1011200087490880084646800CE085480088844945
:101130004988884206DD82480688408880490880C0
:10114000084646807E48808845F21051884254D136
:101150007B494889FFF7F4FC0020FFF7FAFC784947
:10116000498900E078E0491C88B2FFF7E9FC0020DB
:10117000FFF7EFFC72494989891C88B2FFF7E0FC50
:101180006F490988491EC1F30F20FFF7E2FC6C4943
:101190004989C91C88B2FFF7D3FC69490978491EFF
:1011A000C8B2FFF7D6FC66498889FFF7C9FC002062
:1011B000FFF7CFFC62498989491C88B2FFF7C0FC60
:1011C0000020FFF7C6FC5E498989891C88B2FFF7B9
:1011D000B7FC5B494988491EC1F30F20FFF7B9FCF2
:1011E00057498989C91C88B2FFF7AAFC54498978F4
:1011F000491EC8B2FFF7ADFC55E051494889FFF7D9
:101200009FFC0020FFF7A5FC0020FFF7A2FC4C4943
:101210000988491EC1F30F20FFF79BFC4849097854
:10122000491EC8B2FFF795FC45498889FFF788FC3D
:101230000020FFF78EFC0020FFF78BFC4049498817
:10124000491EC1F30F20FFF784FC3D498978491EF0
:10125000C8B2FFF77EFC26E0082D1CD2DFE805F0BF
:1012600004070A0D0F12151844F0300413E044F07F
:10127000100410E044F020040DE000BF0BE044F047
:10128000380408E044F0280405E044F0180402E0C3
:1012900044F0080400BF00BF032744F480542146F3
:1012A0003846FFF768FCF0BD30B504460D462946C8
:1012B0002046FFF792FCFFF773FC22480088224982
:1012C000088030BD70B504460D4616461C4880881F
:1012D00049F24131884205D01948808845F21031E1
:1012E000884214D116494889FFF72AFC2012FFF7DB
:1012F00030FCE0B2FFF72DFC11498889FFF720FC94
:101300002812FFF726FCE8B2FFF723FC93E00C4815
:10131000808845F21051884227D109494889FFF752
:101320000FFC2012FFF715FC05494989491C88B2BA
:10133000FFF706FCE0B2FFF70CFC0149888905E0E5
:10134000440200205A0000200008006CFFF7F8FB60
:101350002812FFF7FEFBFE498989491C88B2FFF776
:10136000EFFBE8B2FFF7F5FB65E0F948808841F64E
:101370006311884228D1F648807920B9F448008862
:10138000401E001B84B2F2494889FFF7D9FB2012A6
:10139000FFF7DFFBE0B2FFF7DCFB2012FFF7D9FB22
:1013A000E0B2FFF7D6FBEA498889FFF7C9FB2812AC
:1013B000FFF7CFFBE8B2FFF7CCFB2812FFF7C9FB22
:1013C000E8B2FFF7C6FB36E0E148808846F6040144
:1013D00088421DD1DE488079012804D1DC4800888C
:1013E000401E001B84B2DA494889FFF7A9FB20128E
:1013F000FFF7AFFBE0B2FFF7ACFBD5498889FFF7F9
:101400009FFB2812FFF7A5FBE8B2FFF7A2FB12E053
:10141000CF488079012804D1CD480088401E001BA8
:1014200084B2CB4948892146FFF7A5FBC849888982
:101430002946FFF7A0FBC6480089C6490880881CDA
:10144000068070BD2DE9F0470446BE20FFF778FB0B
:101450000520FFF77EFB204614F0E1FD07464FF024
:101460006632BD4B14F0EEFD054614F0ABFD1FFADD
:1014700080F94846FFF76DFB0120FFF76AFBFF206C
:10148000FFF767FB0020FFF764FB0020FFF761FB1D
:10149000BDE8F08710B50446002C66D1AC498871D0
:1014A000F02008804FF4A07048800846808849F2F8
:1014B000413188420BD0A648808846F60401884214
:1014C00005D0A348808845F2103188421AD12C20DB
:1014D0009F4908812A2048812B20888108468088DE
:1014E00046F60401884205D09948808845F21031BB
:1014F000884206D14FF4A070954908804FF4F070EF
:101500004880A1E09248808845F21051884210D16D
:101510004FF430508E4908814FF4285048814FF4E1
:101520002C5088814FF4F07008804FF44870488048
:101530008AE08748808841F6631188420DD12C20CB
:10154000834908812B2048812A2088814FF4F0703C
:1015500008804FF44870488076E022207C4908815A
:1015600020204881212088816EE0012078498871FF
:101570004FF4A0700880F02048800846808849F227
:101580004131884205D07248808845F21031884246
:1015900007D12C206E4908812A2048812B20888180
:1015A0003FE06B48808846F60401884207D12C2032
:1015B000674908812B2048812A20888131E06448CE
:1015C000808845F21051884210D14FF43050604964
:1015D00008814FF4285048814FF42C5088814FF4F3
:1015E000487008804FF4F07048801AE058488088AE
:1015F00041F6631188420DD12C20554908812A20DB
:1016000048812B2088814FF4487008804FF4F07097
:10161000488006E022204E49088121204881202070
:1016200088814B48808846F60401884205D04848A6
:10163000808845F21031884206D14FF4F070444959
:1016400008804FF4A07048800020FFF7B9FC10BD5F
:101650002DE9F04F86B004460D469046994604EBBE
:101660000800401E86B205EB0900401E87B23848CC
:10167000808849F24131884215D03548808845F24A
:10168000103188420FD03248808846F604018842E3
:1016900009D02F488079012826D12D48808841F62D
:1016A0006311884220D12A494889FFF749FA20125C
:1016B000FFF74FFAE0B2FFF74CFA3012FFF749FAA2
:1016C000F0B2FFF746FA22498889FFF739FA281263
:1016D000FFF73FFAE8B2FFF73CFA3812FFF739FAA2
:1016E000F8B2FFF736FAC0E01948808841F6631176
:1016F00088423CD116480088A0EB0800001B84B249
:1017000005EB0900401E1FFA80F911494889FFF7CF
:1017100017FA2012FFF71DFAE0B2FFF71AFA04EBEE
:101720000801491EC1F30F20FFF713FA04EB08016B
:10173000491EC8B2FFF70DFA05498889FFF700FA7C
:101740002812FFF706FAE8B2FFF703FA06E00000F6
:1017500044020020FE07006C666604404FEA292020
:10176000FFF7F7F909F0FF00FFF7F3F97DE0FE4816
:10177000808845F21051884244D1FB494889FFF7DF
:10178000DFF92012FFF7E5F9F7494989491C88B2CA
:10179000FFF7D6F9E0B2FFF7DCF9F3494989891C74
:1017A00088B2FFF7CDF93012FFF7D3F9EE49498936
:1017B000C91C88B2FFF7C4F9F0B2FFF7CAF9EA49C9
:1017C0008889FFF7BDF92812FFF7C3F9E64989892F
:1017D000491C88B2FFF7B4F9E8B2FFF7BAF9E24959
:1017E0008989891C88B2FFF7ABF93812FFF7B1F984
:1017F000DD498989C91C88B2FFF7A2F9F8B2FFF761
:10180000A8F932E0D848807901280ED1AA46BB4613
:10181000D5480088801B401E80B20190D2480088C5
:10182000001B401E80B2009003E0A246B346019523
:10183000009750200590512004905220039053208F
:10184000029051460598FFF796F959460498FFF71C
:1018500092F901990398FFF78EF900990298FFF722
:101860008AF929462046FFF7B8F906B0BDE8F08F9F
:1018700070B504460026BC48058840884543BA48F0
:10188000808846F60401884216D1B748807901283D
:1018900012D10020B44988712A2048812B208881E8
:1018A00000210846FFF799F90120AF4988712B20E4
:1018B00048812A20888103E000210846FFF78DF93E
:1018C000FFF76EF9002602E0A8480480761CAE42BD
:1018D000FAD370BD00B59FB00120ADF8780010209C
:1018E0008DF87B0003208DF87A001EA9A04805F032
:1018F000BDFC4CF23370ADF8780018208DF87B00F9
:1019000003208DF87A001EA99A4805F0AFFC4FF627
:101910008070ADF8780018208DF87B0003208DF8DA
:101920007A001EA9944805F0A1FC41F20100ADF82F
:10193000780018208DF87B0003208DF87A001EA90E
:101940008E4805F093FC01200890002009900F209C
:101950000A9000200B900C900D900E900190029038
:101960000320039000200490059006900790062025
:101970000F900020109011901020129000201390D2
:1019800015901490169017904FF4805018900020E6
:1019900019904FF480401A9000201B9008A81C90CA
:1019A00001A81D900FA805F047F90121062005F0B8
:1019B000ABFA3220FEF7F1FF0020FFF7E6F86A49A4
:1019C000888008468088FF280ADB084680884FF612
:1019D000FF71884204D064488088B0F5134F7CD1F1
:1019E000D320FFF7ADF8FFF7BEF85F498880FFF717
:1019F000BAF85D498880FFF7B6F85B4988800846E9
:101A000080884FF6FF7101EA002057498880FFF770
:101A1000AAF8554989880843534988800846808830
:101A200049F24131884258D0BF20FFF789F8FFF7CB
:101A30009AF84D498880FFF796F84B498880FFF760
:101A400092F849498880FFF78EF847498880084610
:101A500080884FF6FF7101EA002043498880FFF734
:101A600082F84149898808433F4988800846808830
:101A700046F60401884230D0D420FFF761F8FFF722
:101A800072F839498880FFF76EF837498880FFF788
:101A90006AF835498880084680884FF6FF7101EA68
:101AA000002031498880FFF75EF82F498988084374
:101AB0002D4988800846808845F21031884263D0DD
:101AC0004FF45A40FFF73CF8FFF74DF8264988805D
:101AD0004FF45B40FFF734F800E055E0FFF743F8C0
:101AE00021498880084680884FF6FF7101EA00206E
:101AF0001D4988804FF45C40FFF722F8FFF733F868
:101B00001949898808431849888008468088B0F5B3
:101B1000004F02D145F2105088801348808845F26A
:101B20001051884230D0A120FFF70AF8FFF71BF8C8
:101B30000D498880FFF717F80B4988800846808890
:101B40004FF6FF7101EA002007498880FFF70BF884
:101B5000054989880843044988800846808845F2F9
:101B60006171884210D10BE0440200200008006C33
:101B7000000C014000140140001801400020014009
:101B800041F66310FE498880FD488188FDA013F06E
:101B900077FEFB48808849F2413188427ED1CF20D0
:101BA000FEF7CEFF0020FEF7D4FFC120FEF7D1FFE5
:101BB0003020FEF7CEFFED20FEF7C2FF6420FEF7D7
:101BC000C8FF0320FEF7C5FF1220FEF7C2FF8120E9
:101BD000FEF7BFFFE820FEF7B3FF8520FEF7B9FF51
:101BE0001020FEF7B6FF7A20FEF7B3FFCB20FEF7FA
:101BF000A7FF3920FEF7ADFF2C20FEF7AAFF00203B
:101C0000FEF7A7FF3420FEF7A4FF0220FEF7A1FF96
:101C1000F720FEF795FF2020FEF79BFFEA20FEF756
:101C20008FFF0020FEF795FF0020FEF792FFC020F7
:101C3000FEF786FF1B20FEF78CFFC120FEF780FF1A
:101C40000120FEF786FFC520FEF77AFF3020FEF761
:101C500080FF3020FEF77DFFC720FEF771FFB72021
:101C6000FEF777FF3620FEF76BFF4820FEF771FF87
:101C70003A20FEF765FF5520FEF76BFFB120FEF717
:101C80005FFF0020FEF765FF1A20FEF762FFB62017
:101C9000FEF756FF0A20FEF75CFF00E097E0A22067
:101CA000FEF757FFF220FEF74BFF0020FEF751FF33
:101CB0002620FEF745FF0120FEF74BFFE020FEF750
:101CC0003FFF0F20FEF745FF2A20FEF742FF2820A6
:101CD000FEF73FFF0820FEF73CFF0E20FEF739FF1E
:101CE0000820FEF736FF5420FEF733FFA920FEF749
:101CF00030FF4320FEF72DFF0A20FEF72AFF0F20BA
:101D0000FEF727FF0020FEF724FF0020FEF721FF4B
:101D10000020FEF71EFF0020FEF71BFFE120FEF76C
:101D20000FFF0020FEF715FF1520FEF712FF17200A
:101D3000FEF70FFF0720FEF70CFF1120FEF709FF4B
:101D40000620FEF706FF2B20FEF703FF5620FEF7C6
:101D500000FF3C20FEF7FDFE0520FEF7FAFE1020F6
:101D6000FEF7F7FE0F20FEF7F4FE3F20FEF7F1FE30
:101D70003F20FEF7EEFE0F20FEF7EBFE2B20FEF7D6
:101D8000DFFE0020FEF7E5FE0020FEF7E2FE012068
:101D9000FEF7DFFE3F20FEF7DCFE2A20FEF7D0FE36
:101DA0000020FEF7D6FE0020FEF7D3FE0020FEF74F
:101DB000D0FEEF20FEF7CDFE1120FEF7C1FE782009
:101DC000FEF7EBFD2920FEF7BBFE03F023B96C48BC
:101DD000808846F6040188427ED11120FEF7B0FECD
:101DE0001420FEF7DAFDD020FEF7AAFE0720FEF74A
:101DF000B0FE4220FEF7ADFE1D20FEF7AAFED12068
:101E0000FEF79EFE0020FEF7A4FE1A20FEF7A1FEBC
:101E10000920FEF79EFED220FEF792FE0120FEF77B
:101E200098FE2220FEF795FEC020FEF789FE1020C6
:101E3000FEF78FFE3B20FEF78CFE0020FEF789FEAA
:101E40000220FEF786FE1120FEF783FEC520FEF776
:101E500077FE0320FEF77DFEC820FEF771FE00200E
:101E6000FEF777FE2520FEF774FE2120FEF771FEB7
:101E70000520FEF76EFE0020FEF76BFE0A20FEF73F
:101E800068FE6520FEF765FE2520FEF762FE7720DE
:101E9000FEF75FFE5020FEF75CFE0F20FEF759FEB6
:101EA0000020FEF756FEF820FEF74AFE0120FEF75E
:101EB00050FEFE20FEF744FE0020FEF74AFE022000
:101EC000FEF747FE2020FEF73BFE3620FEF738FEE9
:101ED0000820FEF73EFE00E02AE03A20FEF730FE42
:101EE0005520FEF736FE2B20FEF72AFE0020FEF7D7
:101EF00030FE0020FEF72DFE0120FEF72AFE3F20D7
:101F0000FEF727FE2A20FEF71BFE0020FEF721FE2B
:101F10000020FEF71EFE0120FEF71BFEDF20FEF76D
:101F200018FE7820FEF739FD2920FEF709FE4CE760
:101F30001348808845F21031884240F08587ED20B3
:101F4000FEF7FEFD0120FEF704FEFE20FEF701FE77
:101F5000EE20FEF7F5FDDE20FEF7FBFD2120FEF76B
:101F6000F8FDF120FEF7ECFD0120FEF7F2FDDF2089
:101F7000FEF7E6FD1020FEF7ECFDC4200AE00000AD
:101F800044020020204C43442049443A25780D0A5D
:101F900000000000FEF7D4FD8F20FEF7DAFDC6201A
:101FA000FEF7CEFD0020FEF7D4FDE220FEF7D1FDC6
:101FB000E220FEF7CEFDE220FEF7CBFDBF20FEF7CC
:101FC000BFFDAA20FEF7C5FDB020FEF7B9FD0D202C
:101FD000FEF7BFFD0020FEF7BCFD0D20FEF7B9FDAA
:101FE0000020FEF7B6FD1120FEF7B3FD0020FEF73E
:101FF000B0FD1920FEF7ADFD0020FEF7AAFD21205F
:10200000FEF7A7FD0020FEF7A4FD2D20FEF7A1FDA1
:102010000020FEF79EFD3D20FEF79BFD0020FEF711
:1020200098FD5D20FEF795FD0020FEF792FD5D20F6
:10203000FEF78FFD0020FEF78CFDB120FEF780FD3E
:102040008020FEF786FD0020FEF783FD8B20FEF743
:1020500080FD0020FEF77DFD9620FEF77AFD002032
:10206000FEF777FDB220FEF76BFD0020FEF771FD55
:102070000020FEF76EFD0220FEF76BFD0020FEF74C
:1020800068FD0320FEF765FD0020FEF762FDB3202A
:10209000FEF756FD0020FEF75CFD0020FEF759FD1F
:1020A0000020FEF756FD0020FEF753FD0020FEF74E
:1020B00050FD0020FEF74DFD0020FEF74AFD0020F8
:1020C000FEF747FD0020FEF744FD0020FEF741FD2E
:1020D0000020FEF73EFD0020FEF73BFD0020FEF74E
:1020E00038FD0020FEF735FD0020FEF732FD002010
:1020F000FEF72FFD0020FEF72CFD0020FEF729FD46
:102100000020FEF726FD0020FEF723FD0020FEF74D
:1021100020FD0020FEF71DFD0020FEF71AFD002027
:10212000FEF717FDB420FEF70BFD8B20FEF711FD27
:102130000020FEF70EFD9620FEF70BFD0020FEF7B7
:1021400008FDA120FEF705FD0020FEF702FDB520E9
:10215000FEF7F6FC0220FEF7FCFC0020FEF7F9FC7F
:102160000320FEF7F6FC0020FEF7F3FC0420FEF748
:10217000F0FC0020FEF7EDFCB620FEF7E1FC0020AD
:10218000FEF7E7FC0020FEF7E4FCB720FEF7D8FCE2
:102190000020FEF7DEFC0020FEF7DBFC3F20FEF710
:1021A000D8FC0020FEF7D5FC5E20FEF7D2FC002014
:1021B000FEF7CFFC6420FEF7CCFC0020FEF7C9FC44
:1021C0008C20FEF7C6FC0020FEF7C3FCAC20FEF717
:1021D000C0FC0020FEF7BDFCDC20FEF7BAFC0020AE
:1021E000FEF7B7FC7020FEF7B4FC0020FEF7B1FC50
:1021F0009020FEF7AEFC0020FEF7ABFCEB20FEF7D4
:10220000A8FC0020FEF7A5FCDC20FEF7A2FC0020C5
:10221000FEF79FFCB820FEF793FC0020FEF799FC28
:102220000020FEF796FC0020FEF793FC0020FEF74E
:1022300090FC0020FEF78DFC0020FEF78AFC0020B9
:10224000FEF787FC0020FEF784FCBA20FEF778FC3E
:102250002420FEF77EFC0020FEF77BFC0020FEF72A
:1022600078FC0020FEF775FCC120FEF769FC2020F9
:10227000FEF76FFC0020FEF76CFC5420FEF769FCB3
:102280000020FEF766FCFF20FEF763FC0020FEF74F
:1022900060FCC220FEF754FC0A20FEF75AFC002026
:1022A000FEF757FC0420FEF754FC0020FEF751FC1B
:1022B000C320FEF745FC3C20FEF74BFC0020FEF758
:1022C00048FC3A20FEF745FC0020FEF742FC39208E
:1022D000FEF73FFC0020FEF73CFC3720FEF739FC00
:1022E0000020FEF736FC3C20FEF733FC0020FEF712
:1022F00030FC3620FEF72DFC0020FEF72AFC3220B1
:10230000FEF727FC0020FEF724FC2F20FEF721FC1F
:102310000020FEF71EFC2C20FEF71BFC0020FEF721
:1023200018FC2920FEF715FC0020FEF712FC2620E1
:10233000FEF70FFC0020FEF70CFC2420FEF709FC42
:102340000020FEF706FC2420FEF703FC0020FEF729
:1023500000FC2320FEF7FDFB0020FEF7FAFB3C20EB
:10236000FEF7F7FB0020FEF7F4FB3620FEF7F1FB4B
:102370000020FEF7EEFB3220FEF7EBFB0020FEF71D
:10238000E8FB2F20FEF7E5FB0020FEF7E2FB2C2008
:10239000FEF7DFFB0020FEF7DCFB2920FEF7D9FB70
:1023A0000020FEF7D6FB2620FEF7D3FB0020FEF729
:1023B000D0FB2420FEF7CDFB0020FEF7CAFB242033
:1023C000FEF7C7FB0020FEF7C4FB2320FEF7C1FB8E
:1023D0000020FEF7BEFBC420FEF7B2FB6220FEF732
:1023E000B8FB0020FEF7B5FB0520FEF7B2FB00208E
:1023F000FEF7AFFB8420FEF7ACFB0020FEF7A9FB45
:10240000F020FEF7A6FB0020FEF7A3FB1820FEF746
:10241000A0FB0020FEF79DFBA420FEF79AFB002006
:10242000FEF797FB1820FEF794FB0020FEF791FBC8
:102430005020FEF78EFB0020FEF78BFB0C20FEF7F2
:1024400088FB0020FEF785FB1720FEF782FB0020AB
:10245000FEF77FFB9520FEF77CFB0020FEF779FB63
:10246000F320FEF776FB0020FEF773FBE620FEF775
:1024700070FB0020FEF76DFBC520FEF761FB3220EC
:10248000FEF767FB0020FEF764FB4420FEF761FBCC
:102490000020FEF75EFB6520FEF75BFB0020FEF7E9
:1024A00058FB7620FEF755FB0020FEF752FB8820F4
:1024B000FEF74FFB0020FEF74CFBC620FEF740FB6B
:1024C0002020FEF746FB0020FEF743FB1720FEF717
:1024D00040FB0020FEF73DFB0120FEF73AFB002009
:1024E000FEF737FBC720FEF72BFB0020FEF731FB82
:1024F0000020FEF72EFB0020FEF72BFB0020FEF74E
:1025000028FBC820FEF71CFB0020FEF722FB002062
:10251000FEF71FFB0020FEF71CFB0020FEF719FB57
:10252000C920FEF70DFB0020FEF713FB0020FEF78D
:1025300010FB0020FEF70DFB0020FEF70AFB002039
:10254000FEF707FB0020FEF704FB0020FEF701FB6F
:102550000020FEF7FEFA0020FEF7FBFA0020FEF74F
:10256000F8FA0020FEF7F5FA0020FEF7F2FA002054
:10257000FEF7EFFA0020FEF7ECFA0020FEF7E9FA8A
:102580000020FEF7E6FAE020FEF7DAFA1620FEF762
:10259000E0FA0020FEF7DDFA1C20FEF7DAFA002050
:1025A000FEF7D7FA2120FEF7D4FA0020FEF7D1FA81
:1025B0003620FEF7CEFA0020FEF7CBFA4620FEF7D3
:1025C000C8FA0020FEF7C5FA5220FEF7C2FA002032
:1025D000FEF7BFFA6420FEF7BCFA0020FEF7B9FA56
:1025E0007A20FEF7B6FA0020FEF7B3FA8B20FEF74A
:1025F000B0FA0020FEF7ADFA9920FEF7AAFA002003
:10260000FEF7A7FAA820FEF7A4FA0020FEF7A1FA29
:10261000B920FEF79EFA0020FEF79BFAC420FEF7D1
:1026200098FA0020FEF795FACA20FEF792FA0020E9
:10263000FEF78FFAD220FEF78CFA0020FEF789FA17
:10264000D920FEF786FA0020FEF783FAE020FEF795
:1026500080FA0020FEF77DFAF320FEF77AFA0020D8
:10266000FEF777FAE120FEF76BFA1620FEF771FA13
:102670000020FEF76EFA1C20FEF76BFA0020FEF732
:1026800068FA2220FEF765FA0020FEF762FA36208B
:10269000FEF75FFA0020FEF75CFA4520FEF759FAD4
:1026A0000020FEF756FA5220FEF753FA0020FEF7FC
:1026B00050FA6420FEF74DFA0020FEF74AFA7A201D
:1026C000FEF747FA0020FEF744FA8B20FEF741FAA6
:1026D0000020FEF73EFA9920FEF73BFA0020FEF7B5
:1026E00038FAA820FEF735FA0020FEF732FAB920B2
:1026F000FEF72FFA0020FEF72CFAC420FEF729FA85
:102700000020FEF726FACA20FEF723FA0020FEF783
:1027100020FAD220FEF71DFA0020FEF71AFAD82080
:10272000FEF717FA0020FEF714FAE020FEF711FA80
:102730000020FEF70EFAF320FEF70BFA0020FEF75A
:1027400008FAE220FEF7FCF90520FEF702FA002065
:10275000FEF7FFF90B20FEF7FCF90020FEF7F9F970
:102760001B20FEF7F6F90020FEF7F3F93420FEF700
:10277000F0F90020FEF7EDF94420FEF7EAF9002019
:10278000FEF7E7F94F20FEF7E4F90020FEF7E1F944
:102790006120FEF7DEF90020FEF7DBF97920FEF775
:1027A000D8F90020FEF7D5F98820FEF7D2F90020ED
:1027B000FEF7CFF99720FEF7CCF90020FEF7C9F914
:1027C000A620FEF7C6F90020FEF7C3F9B720FEF7F2
:1027D000C0F90020FEF7BDF9C220FEF7BAF90020CB
:1027E000FEF7B7F9C720FEF7B4F90020FEF7B1F9FC
:1027F000D120FEF7AEF90020FEF7ABF9D620FEF7A8
:10280000A8F90020FEF7A5F9DD20FEF7A2F90020C7
:10281000FEF79FF9F320FEF79CF90020FEF799F9E7
:10282000E320FEF78DF90520FEF793F90020FEF76F
:1028300090F90A20FEF78DF90020FEF78AF91C2096
:10284000FEF787F90020FEF784F93320FEF781F9BF
:102850000020FEF77EF94420FEF77BF90020FEF70A
:1028600078F95020FEF775F90020FEF772F9622022
:10287000FEF76FF90020FEF76CF97820FEF769F992
:102880000020FEF766F98820FEF763F90020FEF7C6
:1028900060F99720FEF75DF90020FEF75AF9A620AF
:1028A000FEF757F90020FEF754F9B720FEF751F96B
:1028B0000020FEF74EF9C220FEF74BF90020FEF78C
:1028C00048F9C720FEF745F90020FEF742F9D1206C
:1028D000FEF73FF90020FEF73CF9D520FEF739F965
:1028E0000020FEF736F9DD20FEF733F90020FEF771
:1028F00030F9F320FEF72DF90020FEF72AF9E42045
:10290000FEF71EF90120FEF724F90020FEF721F959
:102910000120FEF71EF90020FEF71BF90220FEF74A
:1029200018F90020FEF715F92A20FEF712F9002009
:10293000FEF70FF93C20FEF70CF90020FEF709F92D
:102940004B20FEF706F90020FEF703F95D20FEF7A5
:1029500000F90020FEF7FDF87420FEF7FAF80020D9
:10296000FEF7F7F88420FEF7F4F80020FEF7F1F800
:102970009320FEF7EEF80020FEF7EBF8A220FEF71A
:10298000E8F80020FEF7E5F8B320FEF7E2F80020B3
:10299000FEF7DFF8BE20FEF7DCF80020FEF7D9F8DE
:1029A000C420FEF7D6F80020FEF7D3F8CD20FEF7BE
:1029B000D0F80020FEF7CDF8D320FEF7CAF80020AB
:1029C000FEF7C7F8DD20FEF7C4F80020FEF7C1F8D7
:1029D000F320FEF7BEF80020FEF7BBF8E520FEF777
:1029E000AFF80020FEF7B5F80020FEF7B2F800209F
:1029F000FEF7AFF80020FEF7ACF80220FEF7A9F8CA
:102A00000020FEF7A6F82920FEF7A3F80020FEF725
:102A1000A0F83C20FEF79DF80020FEF79AF84B2026
:102A2000FEF797F80020FEF794F85D20FEF791F886
:102A30000020FEF78EF87420FEF78BF80020FEF7DA
:102A400088F88420FEF785F80020FEF782F89320AE
:102A5000FEF77FF80020FEF77CF8A220FEF779F859
:102A60000020FEF776F8B320FEF773F80020FEF79B
:102A700070F8BE20FEF76DF80020FEF76AF8C4205B
:102A8000FEF767F80020FEF764F8CD20FEF761F846
:102A90000020FEF75EF8D320FEF75BF80020FEF77B
:102AA00058F8DC20FEF755F80020FEF752F8F32026
:102AB000FEF74FF80020FEF74CF8E620FEF740F84E
:102AC0001120FEF746F80020FEF743F83420FEF709
:102AD00040F80020FEF73DF85620FEF73AF80020B7
:102AE000FEF737F87620FEF734F80020FEF731F8CD
:102AF0007720FEF72EF80020FEF72BF86620FEF771
:102B000028F80020FEF725F88820FEF722F800209C
:102B1000FEF71FF89920FEF71CF80020FEF719F8C1
:102B2000BB20FEF716F80020FEF713F89920FEF7F9
:102B300010F80020FEF70DF86620FEF70AF80020D6
:102B4000FEF707F85520FEF704F80020FEF701F81D
:102B50005520FDF7FEFF0020FDF7FBFF4520FDF7A8
:102B6000F8FF0020FDF7F5FF4320FDF7F2FF0020FE
:102B7000FDF7EFFF4420FDF7ECFF0020FDF7E9FF34
:102B8000E720FDF7DDFF3220FDF7E3FF0020FDF732
:102B9000E0FF5520FDF7DDFF0020FDF7DAFF76208E
:102BA000FDF7D7FF0020FDF7D4FF6620FDF7D1FF2A
:102BB0000020FDF7CEFF6720FDF7CBFF0020FDF7DB
:102BC000C8FF6720FDF7C5FF0020FDF7C2FF872083
:102BD000FDF7BFFF0020FDF7BCFF9920FDF7B9FF0F
:102BE0000020FDF7B6FFBB20FDF7B3FF0020FDF787
:102BF000B0FF9920FDF7ADFF0020FDF7AAFF772079
:102C0000FDF7A7FF0020FDF7A4FF4420FDF7A1FF7B
:102C10000020FDF79EFF5620FDF79BFF0020FDF7EB
:102C200098FF2320FDF795FF0020FDF792FF33204A
:102C3000FDF78FFF0020FDF78CFF4520FDF789FF92
:102C40000020FDF786FFE820FDF77AFF0020FDF762
:102C500080FF0020FDF77DFF9920FDF77AFF00201F
:102C6000FDF777FF8720FDF774FF0020FDF771FF68
:102C70008820FDF76EFF0020FDF76BFF7720FDF742
:102C800068FF0020FDF765FF6620FDF762FF00206A
:102C9000FDF75FFF8820FDF75CFF0020FDF759FF7F
:102CA000AA20FDF756FF0020FDF753FFBB20FDF7DC
:102CB00050FF0020FDF74DFF9920FDF74AFF00204F
:102CC000FDF747FF6620FDF744FF0020FDF741FFB9
:102CD0005520FDF73EFF0020FDF73BFF5520FDF797
:102CE00038FF0020FDF735FF4420FDF732FF0020BC
:102CF000FDF72FFF4420FDF72CFF0020FDF729FFF3
:102D00005520FDF726FF0020FDF723FFE920FDF702
:102D100017FFAA20FDF71DFF0020FDF71AFF002076
:102D2000FDF717FF0020FDF714FF0020FDF708FF57
:102D3000AA20FDF70EFFCF20FDF702FF0020FDF7D0
:102D400008FF0020FDF705FF0020FDF702FF00202F
:102D5000FDF7FFFE0020FDF7FCFE0020FDF7F9FE69
:102D60000020FDF7F6FE0020FDF7F3FE0020FDF742
:102D7000F0FE0020FDF7EDFE0020FDF7EAFE00204A
:102D8000FDF7E7FE0020FDF7E4FE0020FDF7E1FE81
:102D90000020FDF7DEFE0020FDF7DBFE0020FDF742
:102DA000D8FEF020FDF7CCFE0020FDF7D2FE50202B
:102DB000FDF7CFFE0020FDF7CCFE0020FDF7C9FE99
:102DC0000020FDF7C6FEF320FDF7BAFE0020FDF758
:102DD000C0FEF920FDF7B4FE0620FDF7BAFE102074
:102DE000FDF7B7FE2920FDF7B4FE0020FDF7B1FE88
:102DF0003A20FDF7A5FE5520FDF7ABFE1120FDF7AB
:102E00009FFE6420FDF7C9FD2920FDF799FE3520BE
:102E1000FDF796FE0020FDF79CFE5120FDF790FE89
:102E2000FF20FDF796FE5320FDF78AFE2C20FDF7CC
:102E300090FE5520FDF784FE8220FDF78AFE2C20AF
:102E4000FDF77EFE02F0E6B8FE48808845F210519C
:102E500088427DD155214FF47040FDF78CFEAA21A8
:102E60004FF20100FDF787FE52214FF20200FDF7FD
:102E700082FE08214FF20300FDF77DFE01214FF293
:102E80000400FDF778FE0D214FF43040FDF773FE8E
:102E90000D214BF20100FDF76EFE0D214BF20200F9
:102EA000FDF769FE34214FF43640FDF764FE34210E
:102EB0004BF20160FDF75FFE34214BF20260FDF73B
:102EC0005AFE0D214FF43140FDF755FE0D214BF216
:102ED0000110FDF750FE0D214BF20210FDF74BFEE5
:102EE00034214FF43740FDF746FE34214BF2017098
:102EF000FDF741FE34214BF20270FDF73CFE00214C
:102F00004FF43240FDF737FE00214BF20120FDF770
:102F100032FE00214BF20220FDF72DFE24214FF45A
:102F20003840FDF728FE24214BF60100FDF723FE73
:102F300024214BF60200FDF71EFE01214FF43F4015
:102F4000FDF719FE0F214FF43340FDF714FE00E0AA
:102F5000FDE30F214BF20130FDF70DFE0F214BF287
:102F60000230FDF708FE34214FF43940FDF703FE2F
:102F700034214BF60110FDF7FEFD34214BF6021013
:102F8000FDF7F9FD08214FF43540FDF7F4FD082168
:102F90004BF20150FDF7EFFD08214BF20250FDF717
:102FA000EAFD03214FF44240FDF7E5FD24214FF4F3
:102FB0003A40FDF7E0FD24214BF60120FDF7DBFD53
:102FC00024214BF60220FDF7D6FD00214FF43C40B2
:102FD000FDF7D1FD78214BF60140FDF7CCFD002136
:102FE0004BF60240FDF7C7FD00214FF43D40FDF7D1
:102FF000C2FD78214BF60150FDF7BDFD00214BF6D7
:103000000250FDF7B8FD00214FF43E40FDF7B3FD3F
:1030100064214BF60160FDF7AEFD00214FF45140F5
:10302000FDF7A9FD33214DF20110FDF7A4FD0021AC
:103030004DF20210FDF79FFD34214DF20310FDF714
:103040009AFD00214DF20410FDF795FD3A214DF255
:103050000510FDF790FD00214DF20610FDF78BFDE8
:103060004A214DF20710FDF786FD00214DF20810B0
:10307000FDF781FD5C214DF20910FDF77CFD00217B
:103080004DF20A10FDF777FD81214DF20B10FDF78F
:1030900072FD00214DF20C10FDF76DFDA6214DF2E1
:1030A0000D10FDF768FD00214DF20E10FDF763FDD8
:1030B000E5214DF20F10FDF75EFD01214DF21010DC
:1030C000FDF759FD13214DF21110FDF754FD0121BB
:1030D0004DF21210FDF74FFD54214DF21310FDF784
:1030E0004AFD01214DF21410FDF745FD82214DF2FC
:1030F0001510FDF740FD01214DF21610FDF73BFDC7
:10310000CA214DF21710FDF736FD02214DF21810BD
:10311000FDF731FD00214DF21910FDF72CFD0221C4
:103120004DF21A10FDF727FD01214DF21B10FDF79E
:1031300022FD02214DF21C10FDF71DFD34214DF240
:103140001D10FDF718FD02214DF21E10FDF713FDB5
:1031500067214DF21F10FDF70EFD02214DF22010E8
:10316000FDF709FD84214DF22110FDF704FD022138
:103170004DF22210FDF7FFFCA4214DF22310FDF7C4
:10318000FAFC02214DF22410FDF7F5FCB7214DF2B7
:103190002510FDF7F0FC02214DF22610FDF7EBFCA7
:1031A000CF214DF22710FDF7E6FC02214DF2281049
:1031B000FDF7E1FCDE214DF22910FDF7DCFC0221D8
:1031C0004DF22A10FDF7D7FCF2214DF22B10FDF73E
:1031D000D2FC02214DF22C10FDF7CDFCFE214DF268
:1031E0002D10FDF7C8FC03214DF22E10FDF7C3FC96
:1031F00010214DF22F10FDF7BEFC03214DF23010CF
:10320000FDF7B9FC33214DF23110FDF7B4FC032179
:103210004DF23210FDF7AFFC6D214DF23310FDF78A
:10322000AAFC00214FF45240FDF7A5FC33214DF2DA
:103230000120FDF7A0FC00214DF20220FDF79BFCD0
:10324000342101E0440200204DF20320FDF793FCFD
:1032500000214DF20420FDF78EFC3A214DF20520AD
:10326000FDF789FC00214DF20620FDF784FC4A2180
:103270004DF20720FDF77FFC00214DF20820FDF7FD
:103280007AFC5C214DF20920FDF775FC00214DF21E
:103290000A20FDF770FC81214DF20B20FDF76BFC3D
:1032A00000214DF20C20FDF766FCA6214DF20D2009
:1032B000FDF761FC00214DF20E20FDF75CFCE521DD
:1032C0004DF20F20FDF757FC01214DF21020FDF7C4
:1032D00052FC13214DF21120FDF74DFC01214DF25E
:1032E0001220FDF748FC54214DF21320FDF743FC5A
:1032F00001214DF21420FDF73EFC82214DF21520F4
:10330000FDF739FC01214DF21620FDF734FCCA21EE
:103310004DF21720FDF72FFC02214DF21820FDF78A
:103320002AFC00214DF21920FDF725FC02214DF267
:103330001A20FDF720FC01214DF21B20FDF71BFC9C
:1033400002214DF21C20FDF716FC34214DF21D2008
:10335000FDF711FC02214DF21E20FDF70CFC672148
:103360004DF21F20FDF707FC02214DF22020FDF752
:1033700002FC84214DF22120FDF7FDFB02214DF2DC
:103380002220FDF7F8FBA4214DF22320FDF7F3FBEB
:1033900002214DF22420FDF7EEFBB7214DF225204E
:1033A000FDF7E9FB02214DF22620FDF7E4FBCF21DA
:1033B0004DF22720FDF7DFFB02214DF22820FDF71B
:1033C000DAFBDE214DF22920FDF7D5FB02214DF27B
:1033D0002A20FDF7D0FBF2214DF22B20FDF7CBFB8D
:1033E00002214DF22C20FDF7C6FBFE214DF22D20CF
:1033F000FDF7C1FB03214DF22E20FDF7BCFB102190
:103400004DF22F20FDF7B7FB03214DF23020FDF7E1
:10341000B2FB33214DF23120FDF7ADFB03214DF21C
:103420003220FDF7A8FB6D214DF23320FDF7A3FB01
:1034300000214FF45340FDF79EFB33214DF2013044
:10344000FDF799FB00214DF20230FDF794FB34218A
:103450004DF20330FDF78FFB00214DF20430FDF7F4
:103460008AFB3A214DF20530FDF785FB00214DF234
:103470000630FDF780FB4A214DF20730FDF77BFB5C
:1034800000214DF20830FDF776FB5C214DF209304A
:10349000FDF771FB00214DF20A30FDF76CFB812135
:1034A0004DF20B30FDF767FB00214DF20C30FDF7BC
:1034B00062FBA6214DF20D30FDF75DFB00214DF2C0
:1034C0000E30FDF758FBE5214DF20F30FDF753FBB1
:1034D00001214DF21030FDF74EFB13214DF211305A
:1034E000FDF749FB01214DF21230FDF744FB542159
:1034F0004DF21330FDF73FFB01214DF21430FDF783
:103500003AFB82214DF21530FDF735FB01214DF2DA
:103510001630FDF730FBCA214DF21730FDF72BFBBB
:1035200002214DF21830FDF726FB00214DF2193033
:10353000FDF721FB02214DF21A30FDF71CFB0121A2
:103540004DF21B30FDF717FB02214DF21C30FDF749
:1035500012FB34214DF21D30FDF70DFB02214DF21F
:103560001E30FDF708FB67214DF21F30FDF703FB0E
:1035700002214DF22030FDF7FEFA84214DF2213078
:10358000FDF7F9FA02214DF22230FDF7F4FAA421F9
:103590004DF22330FDF7EFFA02214DF22430FDF712
:1035A000EAFAB7214DF22530FDF7E5FA02214DF296
:1035B0002630FDF7E0FACF214DF22730FDF7DBFA98
:1035C00002214DF22830FDF7D6FADE214DF22930E6
:1035D000FDF7D1FA02214DF22A30FDF7CCFAF221A3
:1035E0004DF22B30FDF7C7FA02214DF22C30FDF7DA
:1035F000C2FAFE214DF22D30FDF7BDFA03214DF246
:103600002E30FDF7B8FA10214DF22F30FDF7B3FA46
:1036100003214DF23030FDF7AEFA33214DF2313057
:10362000FDF7A9FA03214DF23230FDF7A4FA6D211E
:103630004DF23330FDF79FFA00214FF45440FDF76F
:103640009AFA33214DF20140FDF795FA00214DF22F
:103650000240FDF790FA34214DF20340FDF78BFA5A
:1036600000214DF20440FDF786FA3A214DF2054063
:10367000FDF781FA00214DF20640FDF77CFA4A2160
:103680004DF20740FDF777FA00214DF20840FDF7B3
:1036900072FA5C214DF20940FDF76DFA00214DF2FE
:1036A0000A40FDF768FA81214DF20B40FDF763FAFD
:1036B00000214DF20C40FDF75EFAA6214DF20D40BF
:1036C000FDF759FA00214DF20E40FDF754FAE521BD
:1036D0004DF20F40FDF74FFA01214DF21040FDF77A
:1036E0004AFA13214DF21140FDF745FA01214DF23E
:1036F0001240FDF740FA54214DF21340FDF73BFA1A
:1037000001214DF21440FDF736FA82214DF21540A9
:10371000FDF731FA01214DF21640FDF72CFACA21CE
:103720004DF21740FDF727FA02214DF21840FDF740
:1037300022FA00214DF21940FDF71DFA02214DF247
:103740001A40FDF718FA01214DF21B4000E006E394
:10375000FDF711FA02214DF21C40FDF70CFA34215D
:103760004DF21D40FDF707FA02214DF21E40FDF714
:1037700002FA67214DF21F40FDF7FDF902214DF2DB
:103780002040FDF7F8F984214DF22140FDF7F3F9CF
:1037900002214DF22240FDF7EEF9A4214DF2234023
:1037A000FDF7E9F902214DF22440FDF7E4F9B721D4
:1037B0004DF22540FDF7DFF902214DF22640FDF7DD
:1037C000DAF9CF214DF22740FDF7D5F902214DF26C
:1037D0002840FDF7D0F9DE214DF22940FDF7CBF965
:1037E00002214DF22A40FDF7C6F9F2214DF22B409D
:1037F000FDF7C1F902214DF22C40FDF7BCF9FE2185
:103800004DF22D40FDF7B7F903214DF22E40FDF7A3
:10381000B2F910214DF22F40FDF7ADF903214DF221
:103820003040FDF7A8F933214DF23140FDF7A3F9FF
:1038300003214DF23240FDF79EF96D214DF23340E8
:10384000FDF799F900214FF45540FDF794F9332124
:103850004DF20150FDF78FF900214DF20250FDF7B6
:103860008AF934214DF20350FDF785F900214DF21C
:103870000450FDF780F93A214DF20550FDF77BF930
:1038800000214DF20650FDF776F94A214DF207501E
:10389000FDF771F900214DF20850FDF76CF95C213C
:1038A0004DF20950FDF767F900214DF20A50FDF77E
:1038B00062F981214DF20B50FDF75DF900214DF2C7
:1038C0000C50FDF758F9A6214DF20D50FDF753F9B4
:1038D00000214DF20E50FDF74EF9E5214DF20F504B
:1038E000FDF749F901214DF21050FDF744F913217C
:1038F0004DF21150FDF73FF901214DF21250FDF745
:103900003AF954214DF21350FDF735F901214DF2EA
:103910001450FDF730F982214DF21550FDF72BF9C7
:1039200001214DF21650FDF726F9CA214DF217502C
:10393000FDF721F902214DF21850FDF71CF9002185
:103940004DF21950FDF717F902214DF21A50FDF70B
:1039500012F901214DF21B50FDF70DF902214DF234
:103960001C50FDF708F934214DF21D50FDF703F905
:1039700002214DF21E50FDF7FEF867214DF21F5057
:10398000FDF7F9F802214DF22050FDF7F4F88421FB
:103990004DF22150FDF7EFF802214DF22250FDF7D4
:1039A000EAF8A4214DF22350FDF7E5F802214DF28B
:1039B0002450FDF7E0F8B7214DF22550FDF7DBF874
:1039C00002214DF22650FDF7D6F8CF214DF22750B7
:1039D000FDF7D1F802214DF22850FDF7CCF8DE2199
:1039E0004DF22950FDF7C7F802214DF22A50FDF79C
:1039F000C2F8F2214DF22B50FDF7BDF802214DF235
:103A00002C50FDF7B8F8FE214DF22D50FDF7B3F81C
:103A100003214DF22E50FDF7AEF810214DF22F503C
:103A2000FDF7A9F803214DF23050FDF7A4F833213A
:103A30004DF23150FDF79FF803214DF23250FDF762
:103A40009AF86D214DF23350FDF795F800214FF4AF
:103A50005640FDF790F833214DF20160FDF78BF8E9
:103A600000214DF20260FDF786F834214DF203602B
:103A7000FDF781F800214DF20460FDF77CF83A2152
:103A80004DF20560FDF777F800214DF20660FDF775
:103A900072F84A214DF20760FDF76DF800214DF2F2
:103AA0000860FDF768F85C214DF20960FDF763F8E6
:103AB00000214DF20A60FDF75EF881214DF20B60A6
:103AC000FDF759F800214DF20C60FDF754F8A621DE
:103AD0004DF20D60FDF74FF800214DF20E60FDF73D
:103AE0004AF8E5214DF20F60FDF745F801214DF24E
:103AF0001060FDF740F813214DF21160FDF73BF81F
:103B000001214DF21260FDF736F854214DF2136099
:103B1000FDF731F801214DF21460FDF72CF88221F8
:103B20004DF21560FDF727F801214DF21660FDF703
:103B300022F8CA214DF21760FDF71DF802214DF25F
:103B40001860FDF718F800214DF21960FDF713F821
:103B500002214DF21A60FDF70EF801214DF21B60B3
:103B6000FDF709F802214DF21C60FDF704F834213D
:103B70004DF21D60FCF7FFFF02214DF21E60FCF7C5
:103B8000FAFF67214DF21F60FCF7F5FF02214DF2AD
:103B90002060FCF7F0FF84214DF22160FCF7EBFF81
:103BA00002214DF22260FCF7E6FFA4214DF22360D2
:103BB000FCF7E1FF02214DF22460FCF7DCFFB721A6
:103BC0004DF22560FCF7D7FF02214DF22660FCF78D
:103BD000D2FFCF214DF22760FCF7CDFF02214DF23D
:103BE0002860FCF7C8FFDE214DF22960FCF7C3FF17
:103BF00002214DF22A60FCF7BEFFF2214DF22B604C
:103C0000FCF7B9FF02214DF22C60FCF7B4FFFE2156
:103C10004DF22D60FCF7AFFF03214DF22E60FCF753
:103C2000AAFF10214DF22F60FCF7A5FF03214DF2F2
:103C30003060FCF7A0FF33214DF23160FCF79BFFB1
:103C400003214DF23260FCF796FF6D214DF2336097
:103C5000FCF791FF55214FF47040FCF78CFFAA212F
:103C60004FF20100FCF787FF52214FF20200FCF7F0
:103C700082FF08214FF20300FCF77DFF00214FF285
:103C80000400FCF778FFCC214FF43140FCF773FFC0
:103C900000214BF20110FCF76EFF05214FF4364076
:103CA000FCF769FF70214FF43740FCF764FF702187
:103CB0004BF20170FCF75FFF01214FF43840FCF735
:103CC0005AFF03214BF60100FCF755FF03214BF689
:103CD0000200FCF750FF03214BF60300FCF74BFFFB
:103CE00002214FF43C40FCF746FF00214BF6014017
:103CF000FCF741FF00214BF60240FCF73CFFD021CE
:103D00004FF44940FCF737FF02214CF60110FCF755
:103D100032FF50214CF60210FCF72DFF50214CF6DB
:103D20000310FCF728FF50214CF60410FCF723FF8A
:103D300000214FF45450FCF71EFF55214FF46850FA
:103D4000FCF719FF4FF48850FCF7FAFE7820FCF7D7
:103D500000FE4FF42450FCF7F3FE01F05BB9FE487F
:103D6000808849F2253188427ED147F6F001E5206E
:103D7000FCF701FF4FF480710120FCF7FCFE4FF4CB
:103D8000E0610220FCF7F7FE41F230010320FCF76E
:103D9000F2FE00210420FCF7EEFE40F20221082092
:103DA000FCF7E9FE00210920FCF7E5FE00210A20CE
:103DB000FCF7E1FE00210C20FCF7DDFE00210D20C8
:103DC000FCF7D9FE00210F20FCF7D5FE00211020C2
:103DD000FCF7D1FE07211120FCF7CDFE00211220B7
:103DE000FCF7C9FE00211320FCF7C5FE00210720C7
:103DF000FCF7C1FE41F290611020FCF7BCFE40F2DE
:103E000027211120FCF7B7FE9D211220FCF7B3FEFD
:103E10004FF4C8511320FCF7AEFE25212920FCF7F2
:103E2000AAFE0D212B20FCF7A6FE07213020FCF76F
:103E3000A2FE40F203313120FCF79DFE0321322027
:103E4000FCF799FE40F206213520FCF794FE08218C
:103E50003620FCF790FE40F206413720FCF78BFE3F
:103E60004FF44171382000E057E0FCF784FE072151
:103E70003920FCF780FE40F202613C20FCF77BFE1B
:103E800008213D20FCF777FE00215020FCF773FE4F
:103E9000EF215120FCF76FFE00215220FCF76BFE52
:103EA00040F23F115320FCF766FE4FF4274160209B
:103EB000FCF761FE01216120FCF75DFE00216A2014
:103EC000FCF759FE00218020FCF755FE00218120DF
:103ED000FCF751FE00218220FCF74DFE00218320DB
:103EE000FCF749FE00218420FCF745FE00218520D7
:103EF000FCF741FE10219020FCF73DFE4FF4C0611D
:103F00009220FCF738FE40F233110720FCF733FE15
:103F100022210020FCF72FFE1FE78F48808849F2FE
:103F2000283188427ED141F28F01EC20FCF723FE3C
:103F300041F23421EF20FCF71EFE4FF48071012086
:103F4000FCF719FE4FF4E0610220FCF714FE41F289
:103F500030010320FCF70FFE00210420FCF70BFECC
:103F600040F202210820FCF706FE00210920FCF7A0
:103F700002FE00210A20FCF7FEFD01210C20FCF7C7
:103F8000FAFD00210D20FCF7F6FD00210F20FCF7C3
:103F9000F2FD00211020FCF7EEFD07211120FCF7B7
:103FA000EAFD00211220FCF7E6FD00211320FCF7BA
:103FB000E2FD01210720FCF7DEFD3220FCF7EDFCDD
:103FC00041F290411020FCF7D6FD40F2272111204C
:103FD000FCF7D1FD3220FCF7E0FC8A211220FCF72F
:103FE000CAFD3220FCF7D9FC4FF4D0511320FCF766
:103FF000C2FD06212920FCF7BEFD0D212B20FCF778
:10400000BAFD3220FCF7C9FC00212020FCF7B3FDEB
:1040100000212120FCF7AFFD3220FCF7BEFC00217F
:10402000302000E074E0FCF7A6FD40F2046131208E
:10403000FCF7A1FD40F205313220FCF79CFD002188
:104040003520FCF798FD40F609413620FCF793FD3A
:104050004FF401713720FCF78EFD40F2013138201A
:10406000FCF789FD40F207713920FCF784FD00213F
:104070003C20FCF780FD40F60A213D20FCF77BFD4B
:104080003220FCF78AFC00215020FCF774FDEF2160
:104090005120FCF770FD00215220FCF76CFD40F22E
:1040A0003F115320FCF767FD4FF427416020FCF7D8
:1040B00062FD01216120FCF75EFD00216A20FCF712
:1040C0005AFD00218020FCF756FD00218120FCF7DD
:1040D00052FD00218220FCF74EFD00218320FCF7D9
:1040E0004AFD00218420FCF746FD00218520FCF7D5
:1040F00042FD10219020FCF73EFD4FF4C06192205C
:10410000FCF739FD40F233110720FCF734FD24E6BB
:104110001148808849F2203188427DD1002108462B
:10412000FCF729FD4FF480710120FCF724FD4FF4CA
:10413000E0610220FCF71FFD41F230010320FCF793
:104140001AFD00210420FCF716FD40F20221082090
:10415000FCF711FD002101E0440200200920FCF7DA
:104160000AFD00210A20FCF706FD01210C20FCF7C6
:1041700002FD00210D20FCF7FEFC00210F20FCF7C2
:10418000FAFC3220FCF709FC40F201110720FCF791
:10419000F2FC3220FCF701FC4FF486511020FCF7B2
:1041A000EAFC07211120FCF7E6FC4FF4887112208D
:1041B000FCF7E1FC4FF430611320FCF7DCFC00213C
:1041C0002920FCF7D8FC44F210012B20FCF7D3FC8B
:1041D00000215020FCF7CFFCEF215120FCF7CBFC55
:1041E00000215220FCF7C7FC40F23F115320FCF79E
:1041F000C2FC4FF41C516020FCF7BDFC0121612082
:10420000FCF7B9FC00216A20FCF7B5FC00218020F6
:10421000FCF7B1FC002100E031E08120FCF7ABFCB1
:1042200000218220FCF7A7FC00218320FCF7A3FCDF
:1042300000218420FCF79FFC00218520FCF79BFCDB
:1042400010219020FCF797FC00219220FCF793FCB2
:1042500001219320FCF78FFC4FF488719520FCF727
:104260008AFC00219720FCF786FC00219820FCF7AF
:1042700082FC40F273110720FCF77DFC6DE5FE48DF
:10428000808849F2313188427DD141F21401E72022
:10429000FCF771FC4FF480710120FCF76CFC4FF4CB
:1042A00000710220FCF767FC41F238010320FCF7A3
:1042B00062FC40F202210820FCF75DFC002109208D
:1042C000FCF759FC00210A20FCF755FC00210C20CA
:1042D000FCF751FC00210D20FCF74DFC00210F20C4
:1042E000FCF749FC00211020FCF745FC07211120B8
:1042F000FCF741FC00211220FCF73DFC00211320BB
:10430000FCF739FCC820FCF748FB41F29061102013
:10431000FCF731FC40F227211120FCF72CFC322065
:10432000FCF73BFB0C211220FCF725FC3220FCF7AC
:1043300034FB4FF400611320FCF71DFC11212920F0
:10434000FCF719FC0B212B20FCF715FC3220FCF7A5
:1043500024FB00212020FCF70EFC40F23F1121201D
:10436000FCF709FC00213020FCF705FC4FF48371B9
:104370003120FCF700FC00213220FCF7FCFB4FF45D
:104380000171352000E064E0FCF7F5FB41F20A61C1
:104390003620FCF7F0FB40F207713720FCF7EBFB0F
:1043A0004FF483713820FCF7E6FB40F207713920A7
:1043B000FCF7E1FB40F202413C20FCF7DCFB40F65D
:1043C0000F413D20FCF7D7FB00215020FCF7D3FB29
:1043D000EF215120FCF7CFFB00215220FCF7CBFB53
:1043E00040F23F115320FCF7C6FB4FF41C516020F4
:1043F000FCF7C1FB01216120FCF7BDFB00216A2015
:10440000FCF7B9FB00218020FCF7B5FB00218120DF
:10441000FCF7B1FB00218220FCF7ADFB00218320DB
:10442000FCF7A9FB00218420FCF7A5FB00218520D7
:10443000FCF7A1FB10219020FCF79DFB4FF4C0611D
:104440009220FCF798FB40F233110720FCF793FB16
:1044500083E48948808845F2084188427ED14FF440
:1044600080710120FCF787FB4FF4E0610220FCF72C
:1044700082FB41F230010320FCF77DFB0021042088
:10448000FCF779FB40F207210820FCF774FB0021C0
:104490000920FCF770FB00210A20FCF76CFB0021CF
:1044A0000C20FCF768FB00210D20FCF764FB0021C9
:1044B0000F20FCF760FB1420FCF76FFA41F2B061AB
:1044C0001020FCF758FB01211120FCF754FB0121BF
:1044D0001720FCF750FB4FF49C711220FCF74BFBAC
:1044E0004FF400611320FCF746FB09212920FCF75B
:1044F00042FB09212A20FCF73EFB0021A420FCF707
:104500003AFB00215020FCF736FBEF215120FCF74D
:1045100032FB00215220FCF72EFB40F23F115320CA
:10452000FCF729FB4FF41C516020FCF724FB012110
:104530006120FCF720FB00216A20FCF71CFB002116
:104540008020FCF718FB00218120FCF714FB0021E0
:104550008220FCF710FB0021832000E023E0FCF721
:104560000AFB00218420FCF706FB00218520FCF7D4
:1045700002FB13219020FCF7FEFA00219220FCF7A9
:10458000FAFA03219320FCF7F6FA4FF4887195208C
:10459000FCF7F1FA40F273110720FCF7ECFA322035
:1045A000FCF7FBF9B8E43448808841F205518842B1
:1045B0007ED100210720FCF7DEFA3220FCF7EDF96E
:1045C0004FF48E711220FCF7D6FA0121A420FCF7DB
:1045D000D2FA0F210820FCF7CEFA08210A20FCF7B6
:1045E000CAFA08210D20FCF7C6FA40F20771302004
:1045F000FCF7C1FA07213120FCF7BDFA40F2036154
:104600003220FCF7B8FA4FF4E0613320FCF7B3FA3C
:1046100040F202213420FCF7AEFA02213520FCF7EB
:10462000AAFA41F60F713620FCF7A5FA40F207719D
:104630003720FCF7A0FA00213820FCF79CFA002173
:104640003920FCF798FA40F207713A20FCF793FA08
:1046500000213B20FCF78FFA07213C20FCF78BFA66
:1046600000213D20FCF787FA3220FCF796F9012162
:104670000720FCF780FA01E0440200200121172006
:10468000FCF779FA3220FCF788F94FF4BD5110207D
:10469000FCF771FA40F217211120FCF76CFA4FF485
:1046A0008F711220FCF767FA4FF47061132000E05D
:1046B00097E0FCF760FA00212A20FCF75CFA0A2157
:1046C0002920FCF758FA4FF49F711220FCF753FA97
:1046D00000215020FCF74FFAEF215120FCF74BFA54
:1046E00000215220FCF747FA40F23F115320FCF71B
:1046F00042FA4FF41C516020FCF73DFA0121612081
:10470000FCF739FA00216A20FCF735FA00218020F5
:10471000FCF731FA00218120FCF72DFA00218220DC
:10472000FCF729FA00218320FCF725FA00218420D8
:10473000FCF721FA00218520FCF71DFA13219020B7
:10474000FCF719FA4FF440719220FCF714FA052196
:104750009320FCF710FA00219520FCF70CFA0021B9
:104760009720FCF708FA00219820FCF704FA4FF490
:1047700080710120FCF7FFF94FF4E0610220FCF7A3
:10478000FAF941F238010320FCF7F5F90021042081
:10479000FCF7F1F900210C20FCF7EDF900210F20C6
:1047A000FCF7E9F900212020FCF7E5F900212120A0
:1047B000FCF7E1F921210720FCF7DDF91420FCF7D3
:1047C000ECF861210720FCF7D6F91420FCF7E5F896
:1047D00040F273110720FCF7CEF91420FCF7DDF846
:1047E00095E4FE4880884BF2055188427ED1002135
:1047F0000846FCF7C0F900210846FCF7BCF9002187
:104800000846FCF7B8F900210846FCF7B4F9012185
:10481000A420FCF7B0F91420FCF7BFF84FF41C51AA
:104820006020FCF7A8F940F202210820FCF7A3F968
:104830004FF405713020FCF79EF943F215713120D9
:10484000FCF799F940F204613220FCF794F940F644
:1048500016613320FCF78FF942F211213420FCF766
:104860008AF94FF4A8513520FCF785F948F2075131
:104870003620FCF780F941F207413720FCF77BF93D
:1048800041F203413820FCF776F920213920FCF76A
:1048900072F91A219020FCF76EF900211020FCF724
:1048A0006AF907211120FCF766F900211220FCF7B4
:1048B00062F900211320FCF75EF91420FCF76DF873
:1048C0004FF4E6611020FCF756F940F23711112041
:1048D000FCF751F91420FCF760F84FF4DC7112205A
:1048E000FCF749F91420FCF758F800E083E04FF496
:1048F00070611320FCF73FF980212A20FCF73BF977
:1049000048212920FCF737F91420FCF746F84FF42A
:1049100080710120FCF72FF94FF4E0610220FCF7D1
:104920002AF941F238010320FCF725F940F202216F
:104930000820FCF720F900210A20FCF71CF90021CF
:104940000C20FCF718F900210D20FCF714F9302198
:104950000E20FCF710F900215020FCF70CF9EF2194
:104960005120FCF708F900215220FCF704F940F22D
:104970003F115320FCF7FFF84FF41C516020FCF767
:10498000FAF801216120FCF7F6F800216A20FCF713
:10499000F2F811219020FCF7EEF84FF4C06192205C
:1049A000FCF7E9F840F202419320FCF7E4F8022119
:1049B0009420FCF7E0F81420FBF7EFFF012107201B
:1049C000FCF7D9F81420FBF7E8FF61210720FCF77A
:1049D000D2F840F273110720FCF7CDF80021202017
:1049E000FCF7C9F800212120FCF7C5F8222100209E
:1049F000FCF7C1F80EE3794880884CF205518842F3
:104A00007ED100210846FCF7B6F800210846FCF7E5
:104A1000B2F81420FBF7C1FF00210846FCF7ABF801
:104A200000210846FCF7A7F800210846FCF7A3F888
:104A300000210846FCF79FF80121A420FCF79BF811
:104A40001420FBF7AAFF4FF41C516020FCF793F8E9
:104A500040F606010820FCF78EF840F20371302082
:104A6000FCF789F801213120FCF785F80421322078
:104A7000FCF781F84FF481713320FCF77CF84FF498
:104A800040713420FCF777F840F203113520FCF731
:104A900072F81F213620FCF76EF840F203713720C0
:104AA000FCF769F801213820FCF765F8042139206A
:104AB000FCF761F815219020FCF75DF84FF4826156
:104AC0001020FCF758F840F247211120FCF753F86A
:104AD0004FF4DE711220FCF74EF84FF460611320A2
:104AE000FCF749F87820FBF758FF4FF4807101205C
:104AF000FCF741F84FF400710220FCF73CF800E0AD
:104B000050E041F230010320FCF735F808210A207B
:104B1000FCF731F800210C20FCF72DF820210E20A5
:104B2000FCF729F800210F20FCF725F800212020B0
:104B3000FCF721F800212120FCF71DF83D212A2057
:104B4000FCF719F81420FBF728FF2D212920FCF78A
:104B500012F800215020FCF70EF84DF2EF01512021
:104B6000FCF709F800215220FCF705F840F23F114C
:104B70005320FCF700F800216120FBF7FCFF002127
:104B80006A20FBF7F8FF4FF440719220FBF7F3FF28
:104B900005219320FBF7EFFF4FF480710720FBF70F
:104BA000EAFF37E20D48808844F2315188427CD1D7
:104BB00001210020FBF7DFFF0A20FBF7EEFE41F2A8
:104BC00028611020FBF7D7FF0E211220FBF7D3FF3F
:104BD00040F639211320FBF7CEFF01E0440200200C
:104BE0000A20FBF7DAFE40211120FBF7C4FF502119
:104BF0001520FBF7C0FF0A20FBF7CFFE1E21122075
:104C0000FBF7B9FF0A20FBF7C8FE4FF4B1511020A3
:104C1000FBF7B1FF42F639211320FBF7ACFF0A2066
:104C2000FBF7BBFE4FF480710120FBF7A4FF4FF4AC
:104C300040710220FBF79FFF41F238010320FBF790
:104C40009AFF40F202210820FBF795FF08210A2075
:104C5000FBF791FF00213020FBF78DFF40F202416E
:104C60003120FBF788FF4FF483713220FBF783FF7D
:104C700040F203513320FBF77EFF4FF48271342062
:104C8000FBF779FF40F201313520FBF774FF40F26A
:104C900007713620FBF76FFF40F205313720FBF735
:104CA0006AFF4FF40271382000E040E0FBF763FF39
:104CB00040F60B713920FBF75EFF02214120FBF724
:104CC0005AFF4FF41C516020FBF755FF0121612072
:104CD000FBF751FF4FF404719020FBF74CFF4FF4AA
:104CE00085719220FBF747FF04219320FBF743FFD8
:104CF0004FF48071A020FBF73EFF01210720FBF756
:104D00003AFF21210720FBF736FF23210720FBF77D
:104D100032FF33210720FBF72EFF40F2331107202B
:104D2000FBF729FF0021A020FBF725FF72E1FA48DD
:104D3000808844F2355188427ED130211520FBF71E
:104D40001AFF10219A20FBF716FF20211120FBF7F4
:104D500012FF43F228411020FBF70DFF0221122021
:104D6000FBF709FF41F238011320FBF704FF28206D
:104D7000FBF713FE12210846FBF7FDFE2820FBF788
:104D80000CFE43F220411020FBF7F5FE43F2380100
:104D90001320FBF7F0FE4620FBF7FFFD002130203B
:104DA000FBF7E9FE40F202413120FBF7E4FE40F25E
:104DB00007313220FBF7DFFE4FF441713320FBF760
:104DC000DAFE04213420FBF7D6FE40F20141352003
:104DD000FBF7D1FE40F207713620FBF7CCFE40F224
:104DE00005313720FBF7C7FE4FF4C2613820FBF7CF
:104DF000C2FE4FF4C2613920FBF7BDFE4FF4807153
:104E00000120FBF7B8FE4FF440710220FBF7B3FE20
:104E100041F230010320FBF7AEFE40F60801082006
:104E2000FBF7A9FE08210A20FBF7A5FE4FF41C5151
:104E30006020FBF7A0FE00E031E001216120FBF7DC
:104E40009AFE4FF49F719020FBF795FE4FF480710E
:104E50009220FBF790FE4FF480719320FBF78BFEBE
:104E60004FF44051A020FBF786FE1021A320FBF752
:104E700082FE01210720FBF77EFE21210720FBF7A0
:104E80007AFE23210720FBF776FE33210720FBF76C
:104E900072FE40F233110720FBF76DFEBAE09E4828
:104EA000808841F663118842F8D1E220FBF748FE82
:104EB0002320FBF74EFE0220FBF74BFE0420FBF7FE
:104EC00048FE6420FBF745FDE020FBF739FE01209A
:104ED000FBF73FFE0A20FBF760FDE020FBF730FE0A
:104EE0000320FBF736FE0C20FBF757FD0120FBF7F4
:104EF00027FE0A20FBF751FDE620FBF721FE0320E9
:104F0000FBF727FEFF20FBF724FEFF20FBF721FE27
:104F1000B020FBF715FE2020FBF71BFE0020FBF75F
:104F200018FE0320FBF715FE40F21F30FBF711FEC1
:104F30000120FBF70EFE40F2DF10FBF70AFE002017
:104F4000FBF707FEB420FBF7FBFD0420FBF701FE97
:104F500040F21F40FBF7FDFD0020FBF7FAFDD220D9
:104F6000FBF7F7FD0020FBF7F4FD0020FBF7F1FD58
:104F70000020FBF7EEFD0020FBF7EBFDB620FBF772
:104F8000DFFD0220FBF7E5FD4FF40370FBF7E1FDC9
:104F90000020FBF7DEFD2220FBF7DBFD0920FBF7FD
:104FA000D8FD0020FBF7D5FD0020FBF7D2FDF02057
:104FB000FBF7C6FD0320FBF7CCFD2920FBF7C0FD66
:104FC000D020FBF7BDFD0020FBF7C3FDBE20FBF7A3
:104FD000B7FD0520FBF7BDFDFE20FBF7BAFD012064
:104FE000FBF7B7FDFF20FBF7B4FD0020FBF7B1FD99
:104FF000B820FBF7A5FD0F20FBF7ABFD0120FBF769
:10500000A8FDBA20FBF79CFD0120FBF7A2FD642060
:10501000FCF718FA0020FCF73DFA01203F49086030
:105020004FF6FF70FCF724FC1FB000BD2DE9FC4FCC
:1050300005460E4617469846DDF82C900020019054
:105040003548808846F60401884229D13248807963
:10505000012825D1AB4635462F480088C01B401E8D
:1050600086B247462C480088A0EB0B00401E1FFA72
:1050700080F80020284988712A2048812B208881C7
:1050800043463A4631462846CDF80090FFF7CEFF1A
:105090000120214988712B2048812A2088811CE029
:1050A000781B401C80B20190344614E0214628460B
:1050B000FBF793FDFBF774FD4FF0000A06E018487C
:1050C000A0F800900AF101001FFA80FA01988245C9
:1050D000F5DB601C84B24445E8DDBDE8FC8F2DE9BA
:1050E000F84F07460D4690469946DDF828B0A8EBE4
:1050F0000700401C1FFA80FAA9EB0500401C80B293
:10510000009000241AE0281981B23846FBF765FDAB
:10511000FBF746FD00260DE044020020808121427D
:105120000008006C04FB0A603BF81000F749088097
:10513000701C86B25645F5DB601C84B20098844230
:10514000E1DBBDE8F88F2DE9FF4F84B081468A4648
:105150000020039002900698A0EB09050798A0EBA9
:105160000A06CDF80490CDF800A0002D01DD01273E
:1051700005E00DB9002702E04FF0FF376D42002E29
:1051800002DD4FF0010806E016B94FF0000802E01A
:105190004FF0FF387642B54201DD2C4600E0344640
:1051A0004FF0000B21E0009A91B2019A90B2FCF707
:1051B0007BF80398284403900298304402900398A7
:1051C000A04205DD0398001B03900198384401902C
:1051D0000298A04205DD0298001B0290009840440E
:1051E00000900BF101001FFA80FB601C8345DADDA3
:1051F00008B0BDE8F08FF0B504460D4616461F46D0
:105200002B46324629462046FFF79DFF3B46224665
:1052100029462046FFF797FF3B463246394620464F
:10522000FFF791FF3B46324629463046FFF78BFF9A
:10523000F0BD2DE9F04306460F4690460024454652
:105240000320A0EB48093CE07A1B91B2321990B2DE
:10525000FCF72AF83A1B91B2721990B2FCF724F8C5
:105260003A1991B2721990B2FCF71EF87A1991B2FC
:10527000321990B2FCF718F87A1991B2321B90B239
:10528000FCF712F83A1991B2721B90B2FCF70CF8C5
:105290007A1B91B2321B90B2FCF706F83A1B91B21E
:1052A000721B90B2FCF700F8641CB9F1000F03DA2E
:1052B000A000801D814404E0601B80000A3081440E
:1052C0006D1EAC42C0DDBDE8F0832DE9F84F80468D
:1052D0000E4617461C46B3462046E31704EB5373AD
:1052E000DB1021464FEAE47C04EB5C7C4FEAEC0CDB
:1052F000A4EBCC0CBCF1000F02D04FF0010C01E08C
:105300004FF0000C6344224604EBD27C4FEA6C0C55
:1053100003FB0CF3DBB20093A7F12000C7B200251A
:1053200056E00C2C07D107EB4700794901EB8000D0
:1053300010F8059013E0102C05D1764800EB07100B
:1053400010F805900BE0182C07D107EBC700724945
:1053500001EB800010F8059001E0BDE8F88F4FF0F8
:10536000000A2FE009F0800030B16C480288314615
:105370004046FBF7A7FF07E00A9828B9684802886B
:1053800031464046FBF79EFF4FEA49604FEA1069FD
:10539000701C86B263484088B04200DCDDE7A6EBB3
:1053A0000B00A0420AD15E4608F101001FFA80F806
:1053B0005C480088404500DCCFE706E00AF10100C8
:1053C00000F0FF0ABAF1080FCCDB00BF681CC5B2C1
:1053D00000988542A5DB00BFBFE710B5024601205B
:1053E00000E050430B1EA1F10104E1B2F9D110BD60
:1053F0002DE9FF4F81B0074691461E460E9D4FF0A6
:10540000000A002439E0301B401EC1B20A20FFF719
:10541000E4FFB9FBF0F00A21B0FBF1F201FB120846
:10542000BAF1000F16D1701EA04213DDB8F1000FC3
:105430000ED10020AB4605EBDB71491001FB047176
:10544000009088B22B4620220299FFF73EFF12E01F
:105450004FF0010A0020AB4605EBDB71491001FB60
:105460000471009088B208F13001CAB22B4602994B
:10547000FFF72BFF00BF601CC4B2B442C3DB05B012
:10548000BDE8F08F2DE9FF4F82B0064692461F46D9
:10549000DDE90F480020019000255CE0781B401EEC
:1054A000C1B20A20FFF799FFBAFBF0F00A21B0FB66
:1054B000F1F201FB12090198B0BB781EA84236DD5B
:1054C000B9F1000F31D108F0800078B108F0010087
:1054D000A34604EBDB71491001FB0561009088B223
:1054E000234630220399FFF7F0FE0EE008F001009A
:1054F000A34604EBDB71491001FB0561009088B203
:10550000234620220399FFF7E0FE22E00008006C0A
:1055100054630108C8670108B86D01085A000020EB
:105520005C0000204402002001E00120019008F00E
:105530000100A34604EBDB71491001FB05610090FB
:1055400088B209F13001CAB223460399FFF7BDFEC4
:1055500000BF681CC5B2BD42A0DB06B0BDE8F08F3D
:105560002DE9F84704460D4690469946DDE909675E
:1055700004F0FF0A08EB04001FFA80F809EB0500AD
:105580001FFA80F916E0444502DB5446A81985B29B
:105590004D4500DB14E0002000903A783346294660
:1055A0002046FFF792FE304606EBD07104EB610116
:1055B0008CB27F1C38787E2802DC38782028E2DA2A
:1055C00000BFBDE8F88770477FB505460C4601214E
:1055D000022002F014F9ADF80850ADF804400020A4
:1055E000ADF80A00ADF8060001A9164802F032FA3B
:1055F00001221146134802F0A4FD1D208DF8000081
:1056000001208DF8010003208DF8020001208DF8A3
:105610000300684601F05BFA01210A4802F076FDBA
:105620007FBD10B50121074803F039F8012804D1E6
:10563000054800680A30044908600121014803F068
:105640003FF810BD000400409800002008B503207A
:105650008DF8000000208DF801008DF80200012077
:105660008DF80300684601F032FA08BDF0B5034634
:105670000C461546642093FBF0F0C6B2642093FB01
:10568000F0F700FB1730C1B2132E02DD01F1640008
:10569000C1B20846CF1701EB977701EBA707BAB263
:1056A000072092FBF0F700FB172082B25719601E0B
:1056B000DFF8E4C31CF80000384482B2CF1701EBD6
:1056C0009777BF10A1EB87071FB9032C01DA501E93
:1056D00082B2072092FBF0F700FB1720C0B2F0BDAA
:1056E0000146CA1701EB92729210A1EB820292B9A5
:1056F000642091FBF0F200FB121050B94FF4C87017
:1057000091FBF0F200FB121008B901207047002055
:10571000FCE70120FAE70020F8E770B50026002436
:10572000002503F083FA0646DC48B6FBF0F4DC48BB
:105730000088A0423CD0DA490C8040F2B27510E0FB
:105740002846FFF7CDFF40B1B4F5B77F02D3A4F5EB
:10575000B77404E0681C85B206E0A4F26D14681CFE
:1057600085B2B4F5B67FEBD800BFCE488580002562
:1057700016E0CC498888FFF7B3FF30B1012D04D182
:105780001D2C01D31D3C09E00CE0C748405DA04240
:1057900003D8C548405D241A00E003E0681C85B2C8
:1057A0001C2CE6D200BF681CBE498871601CC87101
:1057B000BA48B6FBF0F100FB11644FF46160B4FB32
:1057C000F0F0B84908704FF46160B4FBF0F100FBF1
:1057D00011403C21B0FBF1F0B24948704FF46160D8
:1057E000B4FBF0F100FB11403C21B0FBF1F201FBF6
:1057F0001200AC4988700B46DA7999799888FFF7DE
:1058000035FFA8490872002070BD2DE9F05F0646FB
:105810000F4690469946DDE90AAB002440F2B2708B
:10582000864203DB40F63300864202DD0120BDE8FC
:10583000F09F40F2B2750AE02846FFF751FF10B121
:105840009A48044401E09A480444681C85B2B54271
:10585000F2DB781EC7B2002510E09348405D40F2AD
:10586000A321484304EBC0143046FFF739FF18B1B9
:10587000012D01D189480444681C85B2BD42ECDB8E
:10588000A8F1010040F2A321484304EBC014C9EB86
:105890004910C0EB092004EB0014CAEB0A1004EB1A
:1058A00080045C4401214FF0C05001F0A8FF0120AA
:1058B00003F0ADFA204603F0C2F903F0F3F900203B
:1058C000B5E71CB5002401214FF0C05001F097FF4F
:1058D000012003F09CFA042003F061FA45F2500124
:1058E000884248D001214FF0C05001F088FF0120CC
:1058F00003F08DFA03F01EFA012001F0E0FE04E04F
:10590000601CC4B20A20FBF748F8412001F03FFEBA
:1059100008B9FA2CF4DBFA2C01DB01201CBD4FF492
:10592000807001F0E8FE012001F0EBFE03F0BAF90F
:1059300003F0C1F90121084603F058F903F0B2F968
:1059400003F061F947F6FF7003F086F903F0AAF956
:1059500037202A2111230E22CDE90010012140F227
:10596000DF70FFF752FF03F057F945F250010420B2
:1059700003F009FA07E003F09EF90121084603F05D
:1059800035F903F08FF9FFF761FEFFF7C6FE00203F
:10599000C4E70EB5012003F0B3F908B1FFF7BDFE6F
:1059A000022003F0ADF9A0B1022003F0B9F9FFF72E
:1059B000B4FE3C4880783B4949783A4A1278CDE9B0
:1059C000002102903748C3798279818839A00FF08D
:1059D00057FF052003F0A4F903F064F90EBD2DE98B
:1059E000F05F06460F4690469946DDE90AAB002473
:1059F00040F2B270864203DB40F63300864202DD9D
:105A00000120BDE8F09F40F2B2750AE02846FFF79A
:105A100067FE10B12548044401E025480444681C91
:105A200085B2B542F2DB781EC7B2002510E01E48F1
:105A3000405D40F2A321484304EBC0143046FFF719
:105A40004FFE18B1012D01D114480444681C85B2E1
:105A5000BD42ECDBA8F1010040F2A321484304EB76
:105A6000C014C9EB4910C0EB092004EB0014CAEBC9
:105A70000A1004EB80045C4401214FF0C05001F097
:105A8000BEFE012003F0C3F9204603F0F3F803F053
:105A900009F90020B5E70000147B010880510100DE
:105AA0005E00002052020020207B01080085E201F8
:105AB0008033E101416C61726D2054696D653A2556
:105AC000642D25642D25642025643A25643A2564D7
:105AD0000A00000010B5D248006820F00F00D0493D
